Archive member included to satisfy reference by file (symbol)

c:/program files (x86)/atmel/studio/7.0/toolchain/avr8/avr8-gnu-toolchain/bin/../lib/gcc/avr/4.9.2/../../../../avr/lib/avr5\libm.a(addsf3.o)
                              src/arduino/cores/arduino/Print.o (__subsf3)
c:/program files (x86)/atmel/studio/7.0/toolchain/avr8/avr8-gnu-toolchain/bin/../lib/gcc/avr/4.9.2/../../../../avr/lib/avr5\libm.a(addsf3x.o)
                              c:/program files (x86)/atmel/studio/7.0/toolchain/avr8/avr8-gnu-toolchain/bin/../lib/gcc/avr/4.9.2/../../../../avr/lib/avr5\libm.a(addsf3.o) (__addsf3x)
c:/program files (x86)/atmel/studio/7.0/toolchain/avr8/avr8-gnu-toolchain/bin/../lib/gcc/avr/4.9.2/../../../../avr/lib/avr5\libm.a(cmpsf2.o)
                              src/arduino/cores/arduino/Print.o (__ltsf2)
c:/program files (x86)/atmel/studio/7.0/toolchain/avr8/avr8-gnu-toolchain/bin/../lib/gcc/avr/4.9.2/../../../../avr/lib/avr5\libm.a(divsf3.o)
                              src/arduino/cores/arduino/Print.o (__divsf3)
c:/program files (x86)/atmel/studio/7.0/toolchain/avr8/avr8-gnu-toolchain/bin/../lib/gcc/avr/4.9.2/../../../../avr/lib/avr5\libm.a(divsf3x.o)
                              c:/program files (x86)/atmel/studio/7.0/toolchain/avr8/avr8-gnu-toolchain/bin/../lib/gcc/avr/4.9.2/../../../../avr/lib/avr5\libm.a(divsf3.o) (__divsf3x)
c:/program files (x86)/atmel/studio/7.0/toolchain/avr8/avr8-gnu-toolchain/bin/../lib/gcc/avr/4.9.2/../../../../avr/lib/avr5\libm.a(fixsfsi.o)
                              src/arduino/cores/arduino/Print.o (__fixsfsi)
c:/program files (x86)/atmel/studio/7.0/toolchain/avr8/avr8-gnu-toolchain/bin/../lib/gcc/avr/4.9.2/../../../../avr/lib/avr5\libm.a(fixunssfsi.o)
                              src/arduino/cores/arduino/Print.o (__fixunssfsi)
c:/program files (x86)/atmel/studio/7.0/toolchain/avr8/avr8-gnu-toolchain/bin/../lib/gcc/avr/4.9.2/../../../../avr/lib/avr5\libm.a(floatsisf.o)
                              src/arduino/cores/arduino/Print.o (__floatunsisf)
c:/program files (x86)/atmel/studio/7.0/toolchain/avr8/avr8-gnu-toolchain/bin/../lib/gcc/avr/4.9.2/../../../../avr/lib/avr5\libm.a(fp_cmp.o)
                              c:/program files (x86)/atmel/studio/7.0/toolchain/avr8/avr8-gnu-toolchain/bin/../lib/gcc/avr/4.9.2/../../../../avr/lib/avr5\libm.a(cmpsf2.o) (__fp_cmp)
c:/program files (x86)/atmel/studio/7.0/toolchain/avr8/avr8-gnu-toolchain/bin/../lib/gcc/avr/4.9.2/../../../../avr/lib/avr5\libm.a(fp_inf.o)
                              c:/program files (x86)/atmel/studio/7.0/toolchain/avr8/avr8-gnu-toolchain/bin/../lib/gcc/avr/4.9.2/../../../../avr/lib/avr5\libm.a(addsf3x.o) (__fp_inf)
c:/program files (x86)/atmel/studio/7.0/toolchain/avr8/avr8-gnu-toolchain/bin/../lib/gcc/avr/4.9.2/../../../../avr/lib/avr5\libm.a(fp_nan.o)
                              c:/program files (x86)/atmel/studio/7.0/toolchain/avr8/avr8-gnu-toolchain/bin/../lib/gcc/avr/4.9.2/../../../../avr/lib/avr5\libm.a(addsf3x.o) (__fp_nan)
c:/program files (x86)/atmel/studio/7.0/toolchain/avr8/avr8-gnu-toolchain/bin/../lib/gcc/avr/4.9.2/../../../../avr/lib/avr5\libm.a(fp_pscA.o)
                              c:/program files (x86)/atmel/studio/7.0/toolchain/avr8/avr8-gnu-toolchain/bin/../lib/gcc/avr/4.9.2/../../../../avr/lib/avr5\libm.a(addsf3x.o) (__fp_pscA)
c:/program files (x86)/atmel/studio/7.0/toolchain/avr8/avr8-gnu-toolchain/bin/../lib/gcc/avr/4.9.2/../../../../avr/lib/avr5\libm.a(fp_pscB.o)
                              c:/program files (x86)/atmel/studio/7.0/toolchain/avr8/avr8-gnu-toolchain/bin/../lib/gcc/avr/4.9.2/../../../../avr/lib/avr5\libm.a(addsf3x.o) (__fp_pscB)
c:/program files (x86)/atmel/studio/7.0/toolchain/avr8/avr8-gnu-toolchain/bin/../lib/gcc/avr/4.9.2/../../../../avr/lib/avr5\libm.a(fp_round.o)
                              c:/program files (x86)/atmel/studio/7.0/toolchain/avr8/avr8-gnu-toolchain/bin/../lib/gcc/avr/4.9.2/../../../../avr/lib/avr5\libm.a(addsf3.o) (__fp_round)
c:/program files (x86)/atmel/studio/7.0/toolchain/avr8/avr8-gnu-toolchain/bin/../lib/gcc/avr/4.9.2/../../../../avr/lib/avr5\libm.a(fp_split3.o)
                              c:/program files (x86)/atmel/studio/7.0/toolchain/avr8/avr8-gnu-toolchain/bin/../lib/gcc/avr/4.9.2/../../../../avr/lib/avr5\libm.a(addsf3x.o) (__fp_split3)
c:/program files (x86)/atmel/studio/7.0/toolchain/avr8/avr8-gnu-toolchain/bin/../lib/gcc/avr/4.9.2/../../../../avr/lib/avr5\libm.a(fp_zero.o)
                              c:/program files (x86)/atmel/studio/7.0/toolchain/avr8/avr8-gnu-toolchain/bin/../lib/gcc/avr/4.9.2/../../../../avr/lib/avr5\libm.a(addsf3x.o) (__fp_zero)
c:/program files (x86)/atmel/studio/7.0/toolchain/avr8/avr8-gnu-toolchain/bin/../lib/gcc/avr/4.9.2/../../../../avr/lib/avr5\libm.a(gesf2.o)
                              src/arduino/cores/arduino/Print.o (__gtsf2)
c:/program files (x86)/atmel/studio/7.0/toolchain/avr8/avr8-gnu-toolchain/bin/../lib/gcc/avr/4.9.2/../../../../avr/lib/avr5\libm.a(mulsf3.o)
                              src/arduino/cores/arduino/Print.o (__mulsf3)
c:/program files (x86)/atmel/studio/7.0/toolchain/avr8/avr8-gnu-toolchain/bin/../lib/gcc/avr/4.9.2/../../../../avr/lib/avr5\libm.a(mulsf3x.o)
                              c:/program files (x86)/atmel/studio/7.0/toolchain/avr8/avr8-gnu-toolchain/bin/../lib/gcc/avr/4.9.2/../../../../avr/lib/avr5\libm.a(mulsf3.o) (__mulsf3x)
c:/program files (x86)/atmel/studio/7.0/toolchain/avr8/avr8-gnu-toolchain/bin/../lib/gcc/avr/4.9.2/../../../../avr/lib/avr5\libm.a(unordsf2.o)
                              src/arduino/cores/arduino/Print.o (__unordsf2)
c:/program files (x86)/atmel/studio/7.0/toolchain/avr8/avr8-gnu-toolchain/bin/../lib/gcc/avr/4.9.2/avr5\libgcc.a(_mulsi3.o)
                              src/arduino/cores/arduino/WMath.o (__mulsi3)
c:/program files (x86)/atmel/studio/7.0/toolchain/avr8/avr8-gnu-toolchain/bin/../lib/gcc/avr/4.9.2/avr5\libgcc.a(_udivmodsi4.o)
                              src/arduino/cores/arduino/HardwareSerial.o (__udivmodsi4)
c:/program files (x86)/atmel/studio/7.0/toolchain/avr8/avr8-gnu-toolchain/bin/../lib/gcc/avr/4.9.2/avr5\libgcc.a(_divmodsi4.o)
                              src/arduino/cores/arduino/WMath.o (__divmodsi4)
c:/program files (x86)/atmel/studio/7.0/toolchain/avr8/avr8-gnu-toolchain/bin/../lib/gcc/avr/4.9.2/avr5\libgcc.a(_negsi2.o)
                              c:/program files (x86)/atmel/studio/7.0/toolchain/avr8/avr8-gnu-toolchain/bin/../lib/gcc/avr/4.9.2/avr5\libgcc.a(_divmodsi4.o) (__negsi2)
c:/program files (x86)/atmel/studio/7.0/toolchain/avr8/avr8-gnu-toolchain/bin/../lib/gcc/avr/4.9.2/avr5\libgcc.a(_exit.o)
                              C:/Program Files (x86)/Atmel/Studio/7.0/Packs/atmel/ATmega_DFP/1.0.90/gcc/dev/atmega328p/avr5/crtatmega328p.o (exit)
c:/program files (x86)/atmel/studio/7.0/toolchain/avr8/avr8-gnu-toolchain/bin/../lib/gcc/avr/4.9.2/avr5\libgcc.a(_tablejump2.o)
                              src/arduino/libraries/Wire/utility/twi.o (__tablejump2__)
c:/program files (x86)/atmel/studio/7.0/toolchain/avr8/avr8-gnu-toolchain/bin/../lib/gcc/avr/4.9.2/avr5\libgcc.a(_copy_data.o)
                              src/arduino/cores/arduino/HardwareSerial.o (__do_copy_data)
c:/program files (x86)/atmel/studio/7.0/toolchain/avr8/avr8-gnu-toolchain/bin/../lib/gcc/avr/4.9.2/avr5\libgcc.a(_clear_bss.o)
                              src/arduino/cores/arduino/HardwareSerial0.o (__do_clear_bss)
c:/program files (x86)/atmel/studio/7.0/toolchain/avr8/avr8-gnu-toolchain/bin/../lib/gcc/avr/4.9.2/avr5\libgcc.a(_ctors.o)
                              src/arduino/cores/arduino/HardwareSerial0.o (__do_global_ctors)
c:/program files (x86)/atmel/studio/7.0/toolchain/avr8/avr8-gnu-toolchain/bin/../lib/gcc/avr/4.9.2/avr5\libgcc.a(_muluhisi3.o)
                              src/arduino/cores/arduino/Tone.o (__muluhisi3)
c:/program files (x86)/atmel/studio/7.0/toolchain/avr8/avr8-gnu-toolchain/bin/../lib/gcc/avr/4.9.2/avr5\libgcc.a(_umulhisi3.o)
                              c:/program files (x86)/atmel/studio/7.0/toolchain/avr8/avr8-gnu-toolchain/bin/../lib/gcc/avr/4.9.2/avr5\libgcc.a(_muluhisi3.o) (__umulhisi3)
c:/program files (x86)/atmel/studio/7.0/toolchain/avr8/avr8-gnu-toolchain/bin/../lib/gcc/avr/4.9.2/../../../../avr/lib/avr5\libc.a(dtostrf.o)
                              src/arduino/cores/arduino/WString.o (dtostrf)
c:/program files (x86)/atmel/studio/7.0/toolchain/avr8/avr8-gnu-toolchain/bin/../lib/gcc/avr/4.9.2/../../../../avr/lib/avr5\libc.a(malloc.o)
                              src/arduino/cores/arduino/new.o (malloc)
c:/program files (x86)/atmel/studio/7.0/toolchain/avr8/avr8-gnu-toolchain/bin/../lib/gcc/avr/4.9.2/../../../../avr/lib/avr5\libc.a(random.o)
                              src/arduino/cores/arduino/WMath.o (random)
c:/program files (x86)/atmel/studio/7.0/toolchain/avr8/avr8-gnu-toolchain/bin/../lib/gcc/avr/4.9.2/../../../../avr/lib/avr5\libc.a(realloc.o)
                              src/arduino/cores/arduino/WString.o (realloc)
c:/program files (x86)/atmel/studio/7.0/toolchain/avr8/avr8-gnu-toolchain/bin/../lib/gcc/avr/4.9.2/../../../../avr/lib/avr5\libc.a(abort.o)
                              src/arduino/cores/arduino/abi.o (abort)
c:/program files (x86)/atmel/studio/7.0/toolchain/avr8/avr8-gnu-toolchain/bin/../lib/gcc/avr/4.9.2/../../../../avr/lib/avr5\libc.a(atof.o)
                              src/arduino/cores/arduino/WString.o (atof)
c:/program files (x86)/atmel/studio/7.0/toolchain/avr8/avr8-gnu-toolchain/bin/../lib/gcc/avr/4.9.2/../../../../avr/lib/avr5\libc.a(atol.o)
                              src/arduino/cores/arduino/WString.o (atol)
c:/program files (x86)/atmel/studio/7.0/toolchain/avr8/avr8-gnu-toolchain/bin/../lib/gcc/avr/4.9.2/../../../../avr/lib/avr5\libc.a(isspace.o)
                              src/arduino/cores/arduino/WString.o (isspace)
c:/program files (x86)/atmel/studio/7.0/toolchain/avr8/avr8-gnu-toolchain/bin/../lib/gcc/avr/4.9.2/../../../../avr/lib/avr5\libc.a(tolower.o)
                              src/arduino/cores/arduino/WString.o (tolower)
c:/program files (x86)/atmel/studio/7.0/toolchain/avr8/avr8-gnu-toolchain/bin/../lib/gcc/avr/4.9.2/../../../../avr/lib/avr5\libc.a(toupper.o)
                              src/arduino/cores/arduino/WString.o (toupper)
c:/program files (x86)/atmel/studio/7.0/toolchain/avr8/avr8-gnu-toolchain/bin/../lib/gcc/avr/4.9.2/../../../../avr/lib/avr5\libc.a(strcpy_P.o)
                              src/arduino/cores/arduino/WString.o (strcpy_P)
c:/program files (x86)/atmel/studio/7.0/toolchain/avr8/avr8-gnu-toolchain/bin/../lib/gcc/avr/4.9.2/../../../../avr/lib/avr5\libc.a(strlen_P.o)
                              src/arduino/cores/arduino/WString.o (__strlen_P)
c:/program files (x86)/atmel/studio/7.0/toolchain/avr8/avr8-gnu-toolchain/bin/../lib/gcc/avr/4.9.2/../../../../avr/lib/avr5\libc.a(memcmp.o)
                              src/arduino/cores/arduino/IPAddress.o (memcmp)
c:/program files (x86)/atmel/studio/7.0/toolchain/avr8/avr8-gnu-toolchain/bin/../lib/gcc/avr/4.9.2/../../../../avr/lib/avr5\libc.a(memcpy.o)
                              src/arduino/cores/arduino/WString.o (memcpy)
c:/program files (x86)/atmel/studio/7.0/toolchain/avr8/avr8-gnu-toolchain/bin/../lib/gcc/avr/4.9.2/../../../../avr/lib/avr5\libc.a(memmove.o)
                              src/arduino/cores/arduino/WString.o (memmove)
c:/program files (x86)/atmel/studio/7.0/toolchain/avr8/avr8-gnu-toolchain/bin/../lib/gcc/avr/4.9.2/../../../../avr/lib/avr5\libc.a(strchr.o)
                              src/arduino/cores/arduino/WString.o (strchr)
c:/program files (x86)/atmel/studio/7.0/toolchain/avr8/avr8-gnu-toolchain/bin/../lib/gcc/avr/4.9.2/../../../../avr/lib/avr5\libc.a(strcmp.o)
                              src/arduino/cores/arduino/WString.o (strcmp)
c:/program files (x86)/atmel/studio/7.0/toolchain/avr8/avr8-gnu-toolchain/bin/../lib/gcc/avr/4.9.2/../../../../avr/lib/avr5\libc.a(strcpy.o)
                              src/arduino/cores/arduino/WString.o (strcpy)
c:/program files (x86)/atmel/studio/7.0/toolchain/avr8/avr8-gnu-toolchain/bin/../lib/gcc/avr/4.9.2/../../../../avr/lib/avr5\libc.a(strncmp.o)
                              src/arduino/cores/arduino/WString.o (strncmp)
c:/program files (x86)/atmel/studio/7.0/toolchain/avr8/avr8-gnu-toolchain/bin/../lib/gcc/avr/4.9.2/../../../../avr/lib/avr5\libc.a(strncpy.o)
                              src/arduino/cores/arduino/WString.o (strncpy)
c:/program files (x86)/atmel/studio/7.0/toolchain/avr8/avr8-gnu-toolchain/bin/../lib/gcc/avr/4.9.2/../../../../avr/lib/avr5\libc.a(strrchr.o)
                              src/arduino/cores/arduino/WString.o (strrchr)
c:/program files (x86)/atmel/studio/7.0/toolchain/avr8/avr8-gnu-toolchain/bin/../lib/gcc/avr/4.9.2/../../../../avr/lib/avr5\libc.a(strstr.o)
                              src/arduino/cores/arduino/WString.o (strstr)
c:/program files (x86)/atmel/studio/7.0/toolchain/avr8/avr8-gnu-toolchain/bin/../lib/gcc/avr/4.9.2/../../../../avr/lib/avr5\libc.a(itoa.o)
                              src/arduino/cores/arduino/WString.o (__itoa)
c:/program files (x86)/atmel/studio/7.0/toolchain/avr8/avr8-gnu-toolchain/bin/../lib/gcc/avr/4.9.2/../../../../avr/lib/avr5\libc.a(itoa_ncheck.o)
                              src/arduino/cores/arduino/WString.o (__itoa_ncheck)
c:/program files (x86)/atmel/studio/7.0/toolchain/avr8/avr8-gnu-toolchain/bin/../lib/gcc/avr/4.9.2/../../../../avr/lib/avr5\libc.a(ltoa.o)
                              src/arduino/cores/arduino/WString.o (__ltoa)
c:/program files (x86)/atmel/studio/7.0/toolchain/avr8/avr8-gnu-toolchain/bin/../lib/gcc/avr/4.9.2/../../../../avr/lib/avr5\libc.a(ltoa_ncheck.o)
                              src/arduino/cores/arduino/WString.o (__ltoa_ncheck)
c:/program files (x86)/atmel/studio/7.0/toolchain/avr8/avr8-gnu-toolchain/bin/../lib/gcc/avr/4.9.2/../../../../avr/lib/avr5\libc.a(mulsi10.o)
                              c:/program files (x86)/atmel/studio/7.0/toolchain/avr8/avr8-gnu-toolchain/bin/../lib/gcc/avr/4.9.2/../../../../avr/lib/avr5\libc.a(atol.o) (__mulsi_const_10)
c:/program files (x86)/atmel/studio/7.0/toolchain/avr8/avr8-gnu-toolchain/bin/../lib/gcc/avr/4.9.2/../../../../avr/lib/avr5\libc.a(ultoa.o)
                              src/arduino/cores/arduino/WString.o (__ultoa)
c:/program files (x86)/atmel/studio/7.0/toolchain/avr8/avr8-gnu-toolchain/bin/../lib/gcc/avr/4.9.2/../../../../avr/lib/avr5\libc.a(ultoa_ncheck.o)
                              src/arduino/cores/arduino/WString.o (__ultoa_ncheck)
c:/program files (x86)/atmel/studio/7.0/toolchain/avr8/avr8-gnu-toolchain/bin/../lib/gcc/avr/4.9.2/../../../../avr/lib/avr5\libc.a(utoa.o)
                              src/arduino/cores/arduino/WString.o (__utoa)
c:/program files (x86)/atmel/studio/7.0/toolchain/avr8/avr8-gnu-toolchain/bin/../lib/gcc/avr/4.9.2/../../../../avr/lib/avr5\libc.a(utoa_ncheck.o)
                              src/arduino/cores/arduino/WString.o (__utoa_ncheck)
c:/program files (x86)/atmel/studio/7.0/toolchain/avr8/avr8-gnu-toolchain/bin/../lib/gcc/avr/4.9.2/../../../../avr/lib/avr5\libc.a(dtoa_prf.o)
                              c:/program files (x86)/atmel/studio/7.0/toolchain/avr8/avr8-gnu-toolchain/bin/../lib/gcc/avr/4.9.2/../../../../avr/lib/avr5\libc.a(dtostrf.o) (dtoa_prf)
c:/program files (x86)/atmel/studio/7.0/toolchain/avr8/avr8-gnu-toolchain/bin/../lib/gcc/avr/4.9.2/../../../../avr/lib/avr5\libc.a(strtod.o)
                              c:/program files (x86)/atmel/studio/7.0/toolchain/avr8/avr8-gnu-toolchain/bin/../lib/gcc/avr/4.9.2/../../../../avr/lib/avr5\libc.a(atof.o) (strtod)
c:/program files (x86)/atmel/studio/7.0/toolchain/avr8/avr8-gnu-toolchain/bin/../lib/gcc/avr/4.9.2/../../../../avr/lib/avr5\libc.a(ftoa_engine.o)
                              c:/program files (x86)/atmel/studio/7.0/toolchain/avr8/avr8-gnu-toolchain/bin/../lib/gcc/avr/4.9.2/../../../../avr/lib/avr5\libc.a(dtoa_prf.o) (__ftoa_engine)
c:/program files (x86)/atmel/studio/7.0/toolchain/avr8/avr8-gnu-toolchain/bin/../lib/gcc/avr/4.9.2/../../../../avr/lib/avr5\libc.a(cty_isfalse.o)
                              c:/program files (x86)/atmel/studio/7.0/toolchain/avr8/avr8-gnu-toolchain/bin/../lib/gcc/avr/4.9.2/../../../../avr/lib/avr5\libc.a(isspace.o) (__ctype_isfalse)
c:/program files (x86)/atmel/studio/7.0/toolchain/avr8/avr8-gnu-toolchain/bin/../lib/gcc/avr/4.9.2/../../../../avr/lib/avr5\libc.a(strncasecmp_P.o)
                              c:/program files (x86)/atmel/studio/7.0/toolchain/avr8/avr8-gnu-toolchain/bin/../lib/gcc/avr/4.9.2/../../../../avr/lib/avr5\libc.a(strtod.o) (strncasecmp_P)
c:/program files (x86)/atmel/studio/7.0/toolchain/avr8/avr8-gnu-toolchain/bin/../lib/gcc/avr/4.9.2/../../../../avr/lib/avr5\libc.a(strrev.o)
                              c:/program files (x86)/atmel/studio/7.0/toolchain/avr8/avr8-gnu-toolchain/bin/../lib/gcc/avr/4.9.2/../../../../avr/lib/avr5\libc.a(ultoa_ncheck.o) (strrev)
c:/program files (x86)/atmel/studio/7.0/toolchain/avr8/avr8-gnu-toolchain/bin/../lib/gcc/avr/4.9.2/../../../../avr/lib/avr5\libc.a(errno.o)
                              c:/program files (x86)/atmel/studio/7.0/toolchain/avr8/avr8-gnu-toolchain/bin/../lib/gcc/avr/4.9.2/../../../../avr/lib/avr5\libc.a(strtod.o) (errno)
C:/Program Files (x86)/Atmel/Studio/7.0/Packs/atmel/ATmega_DFP/1.0.90/gcc/dev/atmega328p/avr5\libatmega328p.a(eerd_block.o)
                              src/Project/ProjectMain.o (eeprom_read_block)
C:/Program Files (x86)/Atmel/Studio/7.0/Packs/atmel/ATmega_DFP/1.0.90/gcc/dev/atmega328p/avr5\libatmega328p.a(eerd_byte.o)
                              src/arduino/libraries/EEPROM/EEPROM.o (eeprom_read_byte)
C:/Program Files (x86)/Atmel/Studio/7.0/Packs/atmel/ATmega_DFP/1.0.90/gcc/dev/atmega328p/avr5\libatmega328p.a(eewr_block.o)
                              src/Project/ProjectMain.o (eeprom_write_block)
C:/Program Files (x86)/Atmel/Studio/7.0/Packs/atmel/ATmega_DFP/1.0.90/gcc/dev/atmega328p/avr5\libatmega328p.a(eewr_byte.o)
                              src/arduino/libraries/EEPROM/EEPROM.o (eeprom_write_byte)
c:/program files (x86)/atmel/studio/7.0/toolchain/avr8/avr8-gnu-toolchain/bin/../lib/gcc/avr/4.9.2/avr5\libgcc.a(_mulshisi3.o)
                              c:/program files (x86)/atmel/studio/7.0/toolchain/avr8/avr8-gnu-toolchain/bin/../lib/gcc/avr/4.9.2/../../../../avr/lib/avr5\libc.a(random.o) (__mulohisi3)
c:/program files (x86)/atmel/studio/7.0/toolchain/avr8/avr8-gnu-toolchain/bin/../lib/gcc/avr/4.9.2/avr5\libgcc.a(_prologue.o)
                              c:/program files (x86)/atmel/studio/7.0/toolchain/avr8/avr8-gnu-toolchain/bin/../lib/gcc/avr/4.9.2/../../../../avr/lib/avr5\libc.a(realloc.o) (__prologue_saves__)
c:/program files (x86)/atmel/studio/7.0/toolchain/avr8/avr8-gnu-toolchain/bin/../lib/gcc/avr/4.9.2/avr5\libgcc.a(_epilogue.o)
                              c:/program files (x86)/atmel/studio/7.0/toolchain/avr8/avr8-gnu-toolchain/bin/../lib/gcc/avr/4.9.2/../../../../avr/lib/avr5\libc.a(realloc.o) (__epilogue_restores__)

Allocating common symbols
Common symbol       size              file

errno               0x2               c:/program files (x86)/atmel/studio/7.0/toolchain/avr8/avr8-gnu-toolchain/bin/../lib/gcc/avr/4.9.2/../../../../avr/lib/avr5\libc.a(errno.o)
__brkval            0x2               c:/program files (x86)/atmel/studio/7.0/toolchain/avr8/avr8-gnu-toolchain/bin/../lib/gcc/avr/4.9.2/../../../../avr/lib/avr5\libc.a(malloc.o)
__flp               0x2               c:/program files (x86)/atmel/studio/7.0/toolchain/avr8/avr8-gnu-toolchain/bin/../lib/gcc/avr/4.9.2/../../../../avr/lib/avr5\libc.a(malloc.o)

Discarded input sections

 .data          0x00000000        0x0 C:/Program Files (x86)/Atmel/Studio/7.0/Packs/atmel/ATmega_DFP/1.0.90/gcc/dev/atmega328p/avr5/crtatmega328p.o
 .bss           0x00000000        0x0 C:/Program Files (x86)/Atmel/Studio/7.0/Packs/atmel/ATmega_DFP/1.0.90/gcc/dev/atmega328p/avr5/crtatmega328p.o
 .text          0x00000000        0x0 src/arduino/cores/arduino/abi.o
 .data          0x00000000        0x0 src/arduino/cores/arduino/abi.o
 .bss           0x00000000        0x0 src/arduino/cores/arduino/abi.o
 .text.__cxa_deleted_virtual
                0x00000000        0x4 src/arduino/cores/arduino/abi.o
 .text          0x00000000        0x0 src/arduino/cores/arduino/CDC.o
 .data          0x00000000        0x0 src/arduino/cores/arduino/CDC.o
 .bss           0x00000000        0x0 src/arduino/cores/arduino/CDC.o
 .debug_info    0x00000000      0x128 src/arduino/cores/arduino/CDC.o
 .debug_abbrev  0x00000000       0x58 src/arduino/cores/arduino/CDC.o
 .debug_aranges
                0x00000000       0x18 src/arduino/cores/arduino/CDC.o
 .debug_line    0x00000000       0xaf src/arduino/cores/arduino/CDC.o
 .debug_str     0x00000000      0x1e6 src/arduino/cores/arduino/CDC.o
 .comment       0x00000000       0x31 src/arduino/cores/arduino/CDC.o
 .group         0x00000000        0x8 src/arduino/cores/arduino/HardwareSerial.o
Memory Configuration

Name             Origin             Length             Attributes
text             0x00000000         0x00020000         xr
data             0x00800060         0x0000ffa0         rw !x
eeprom           0x00810000         0x00010000         rw !x
fuse             0x00820000         0x00000400         rw !x
lock             0x00830000         0x00000400         rw !x
signature        0x00840000         0x00000400         rw !x
user_signatures  0x00850000         0x00000400         rw !x
*default*        0x00000000         0xffffffff

Linker script and memory map

Address of section .data set to 0x800100
LOAD C:/Program Files (x86)/Atmel/Studio/7.0/Packs/atmel/ATmega_DFP/1.0.90/gcc/dev/atmega328p/avr5/crtatmega328p.o
LOAD src/arduino/cores/arduino/abi.o
LOAD src/arduino/cores/arduino/CDC.o
LOAD src/arduino/cores/arduino/HardwareSerial.o
LOAD src/arduino/cores/arduino/HardwareSerial0.o
LOAD src/arduino/cores/arduino/HardwareSerial1.o
LOAD src/arduino/cores/arduino/HardwareSerial2.o
LOAD src/arduino/cores/arduino/HardwareSerial3.o
LOAD src/arduino/cores/arduino/HID.o
LOAD src/arduino/cores/arduino/hooks.o
LOAD src/arduino/cores/arduino/IPAddress.o
LOAD src/arduino/cores/arduino/main.o
LOAD src/arduino/cores/arduino/new.o
LOAD src/arduino/cores/arduino/Print.o
LOAD src/arduino/cores/arduino/Stream.o
LOAD src/arduino/cores/arduino/Tone.o
LOAD src/arduino/cores/arduino/USBCore.o
LOAD src/arduino/cores/arduino/WInterrupts.o
LOAD src/arduino/cores/arduino/wiring.o
LOAD src/arduino/cores/arduino/wiring_analog.o
LOAD src/arduino/cores/arduino/wiring_digital.o
LOAD src/arduino/cores/arduino/wiring_pulse.o
LOAD src/arduino/cores/arduino/wiring_shift.o
LOAD src/arduino/cores/arduino/WMath.o
LOAD src/arduino/cores/arduino/WString.o
LOAD src/arduino/libraries/EEPROM/EEPROM.o
LOAD src/arduino/libraries/SPI/SPI.o
LOAD src/arduino/libraries/Wire/utility/twi.o
LOAD src/arduino/libraries/Wire/Wire.o
LOAD src/arduino/libraries/Adafruit_SSD1306_I2C/Adafruit_GFX.o
LOAD src/arduino/libraries/Adafruit_SSD1306_I2C/Adafruit_SSD1306.o
LOAD src/Project/ProjectMain.o
START GROUP
LOAD c:/program files (x86)/atmel/studio/7.0/toolchain/avr8/avr8-gnu-toolchain/bin/../lib/gcc/avr/4.9.2/../../../../avr/lib/avr5\libm.a
END GROUP
LOAD c:/program files (x86)/atmel/studio/7.0/toolchain/avr8/avr8-gnu-toolchain/bin/../lib/gcc/avr/4.9.2/avr5\libgcc.a
LOAD c:/program files (x86)/atmel/studio/7.0/toolchain/avr8/avr8-gnu-toolchain/bin/../lib/gcc/avr/4.9.2/../../../../avr/lib/avr5\libm.a
START GROUP
LOAD c:/program files (x86)/atmel/studio/7.0/toolchain/avr8/avr8-gnu-toolchain/bin/../lib/gcc/avr/4.9.2/avr5\libgcc.a
LOAD c:/program files (x86)/atmel/studio/7.0/toolchain/avr8/avr8-gnu-toolchain/bin/../lib/gcc/avr/4.9.2/../../../../avr/lib/avr5\libm.a
LOAD c:/program files (x86)/atmel/studio/7.0/toolchain/avr8/avr8-gnu-toolchain/bin/../lib/gcc/avr/4.9.2/../../../../avr/lib/avr5\libc.a
LOAD C:/Program Files (x86)/Atmel/Studio/7.0/Packs/atmel/ATmega_DFP/1.0.90/gcc/dev/atmega328p/avr5\libatmega328p.a
END GROUP

.hash
 *(.hash)

.dynsym
 *(.dynsym)

.dynstr
 *(.dynstr)

.gnu.version
 *(.gnu.version)

.gnu.version_d
 *(.gnu.version_d)

.gnu.version_r
 *(.gnu.version_r)

.rel.init
 *(.rel.init)

.rela.init
 *(.rela.init)

.rel.text
 *(.rel.text)
 *(.rel.text.*)
 *(.rel.gnu.linkonce.t*)

.rela.text
 *(.rela.text)
 *(.rela.text.*)
 *(.rela.gnu.linkonce.t*)

.rel.fini
 *(.rel.fini)

.rela.fini
 *(.rela.fini)

.rel.rodata
 *(.rel.rodata)
 *(.rel.rodata.*)
 *(.rel.gnu.linkonce.r*)

.rela.rodata
 *(.rela.rodata)
 *(.rela.rodata.*)
 *(.rela.gnu.linkonce.r*)

.rel.data
 *(.rel.data)
 *(.rel.data.*)
 *(.rel.gnu.linkonce.d*)

.rela.data
 *(.rela.data)
 *(.rela.data.*)
 *(.rela.gnu.linkonce.d*)

.rel.ctors
 *(.rel.ctors)

.rela.ctors
 *(.rela.ctors)

.rel.dtors
 *(.rel.dtors)

.rela.dtors
 *(.rela.dtors)

.rel.got
 *(.rel.got)

.rela.got
 *(.rela.got)

.rel.bss
 *(.rel.bss)

.rela.bss
 *(.rela.bss)

.rel.plt
 *(.rel.plt)

.rela.plt
 *(.rela.plt)

.text           0x00000000     0x29d8
 *(.vectors)
 .vectors       0x00000000       0x68 C:/Program Files (x86)/Atmel/Studio/7.0/Packs/atmel/ATmega_DFP/1.0.90/gcc/dev/atmega328p/avr5/crtatmega328p.o
                0x00000000                __vector_default
                0x00000000                __vectors
 *(.vectors)
 *(.progmem.gcc*)
 .progmem.gcc_sw_table.__vector_24
                0x00000068      0x192 src/arduino/libraries/Wire/utility/twi.o
                0x000001fa                . = ALIGN (0x2)
                0x000001fa                __trampolines_start = .
 *(.trampolines)
 .trampolines   0x000001fa        0x0 linker stubs
 *(.trampolines*)
                0x000001fa                __trampolines_end = .
 *(.progmem*)
 .progmem.data._ZL21tone_pin_to_timer_PGM
                0x000001fa        0x1 src/arduino/cores/arduino/Tone.o
 .progmem.data.digital_pin_to_timer_PGM
                0x000001fb       0x14 src/arduino/cores/arduino/wiring_digital.o
                0x000001fb                digital_pin_to_timer_PGM
 .progmem.data.digital_pin_to_bit_mask_PGM
                0x0000020f       0x14 src/arduino/cores/arduino/wiring_digital.o
                0x0000020f                digital_pin_to_bit_mask_PGM
 .progmem.data.digital_pin_to_port_PGM
                0x00000223       0x14 src/arduino/cores/arduino/wiring_digital.o
                0x00000223                digital_pin_to_port_PGM
 .progmem.data.port_to_output_PGM
                0x00000237        0xa src/arduino/cores/arduino/wiring_digital.o
                0x00000237                port_to_output_PGM
 .progmem.data.port_to_mode_PGM
                0x00000241        0xa src/arduino/cores/arduino/wiring_digital.o
                0x00000241                port_to_mode_PGM
 .progmem.data._ZL4font
                0x0000024b      0x500 src/arduino/libraries/Adafruit_SSD1306_I2C/Adafruit_GFX.o
                0x0000074c                . = ALIGN (0x2)
 *fill*         0x0000074b        0x1 
 *(.jumptables)
 *(.jumptables*)
 *(.lowtext)
 *(.lowtext*)
                0x0000074c                __ctors_start = .
 *(.ctors)
 .ctors         0x0000074c        0x2 src/arduino/cores/arduino/HardwareSerial0.o
 .ctors         0x0000074e        0x2 src/arduino/cores/arduino/IPAddress.o
 .ctors         0x00000750        0x2 src/arduino/libraries/Wire/Wire.o
 .ctors         0x00000752        0x2 src/Project/ProjectMain.o
                0x00000754                __ctors_end = .
                0x00000754                __dtors_start = .
 *(.dtors)
                0x00000754                __dtors_end = .
 SORT(*)(.ctors)
 SORT(*)(.dtors)
 *(.init0)
 .init0         0x00000754        0x0 C:/Program Files (x86)/Atmel/Studio/7.0/Packs/atmel/ATmega_DFP/1.0.90/gcc/dev/atmega328p/avr5/crtatmega328p.o
                0x00000754                __init
 *(.init0)
 *(.init1)
 *(.init1)
 *(.init2)
 .init2         0x00000754        0xc C:/Program Files (x86)/Atmel/Studio/7.0/Packs/atmel/ATmega_DFP/1.0.90/gcc/dev/atmega328p/avr5/crtatmega328p.o
 *(.init2)
 *(.init3)
 *(.init3)
 *(.init4)
 .init4         0x00000760       0x16 c:/program files (x86)/atmel/studio/7.0/toolchain/avr8/avr8-gnu-toolchain/bin/../lib/gcc/avr/4.9.2/avr5\libgcc.a(_copy_data.o)
                0x00000760                __do_copy_data
 .init4         0x00000776       0x10 c:/program files (x86)/atmel/studio/7.0/toolchain/avr8/avr8-gnu-toolchain/bin/../lib/gcc/avr/4.9.2/avr5\libgcc.a(_clear_bss.o)
                0x00000776                __do_clear_bss
 *(.init4)
 *(.init5)
 *(.init5)
 *(.init6)
 .init6         0x00000786       0x16 c:/program files (x86)/atmel/studio/7.0/toolchain/avr8/avr8-gnu-toolchain/bin/../lib/gcc/avr/4.9.2/avr5\libgcc.a(_ctors.o)
                0x00000786                __do_global_ctors
 *(.init6)
 *(.init7)
 *(.init7)
 *(.init8)
 *(.init8)
 *(.init9)
 .init9         0x0000079c        0x8 C:/Program Files (x86)/Atmel/Studio/7.0/Packs/atmel/ATmega_DFP/1.0.90/gcc/dev/atmega328p/avr5/crtatmega328p.o
 *(.init9)
 *(.text)
 .text          0x000007a4        0x4 C:/Program Files (x86)/Atmel/Studio/7.0/Packs/atmel/ATmega_DFP/1.0.90/gcc/dev/atmega328p/avr5/crtatmega328p.o
                0x000007a4                __vector_22
                0x000007a4                __vector_12
                0x000007a4                __bad_interrupt
                0x000007a4                __vector_6
                0x000007a4                __vector_3
                0x000007a4                __vector_23
                0x000007a4                __vector_25
                0x000007a4                __vector_11
                0x000007a4                __vector_13
                0x000007a4                __vector_17
                0x000007a4                __vector_5
                0x000007a4                __vector_4
                0x000007a4                __vector_9
                0x000007a4                __vector_15
                0x000007a4                __vector_8
                0x000007a4                __vector_14
                0x000007a4                __vector_10
                0x000007a4                __vector_20
                0x000007a8                . = ALIGN (0x2)
 *(.text.*)
 .text.__cxa_pure_virtual
                0x000007a8        0x4 src/arduino/cores/arduino/abi.o
                0x000007a8                __cxa_pure_virtual
 .text._ZN14HardwareSerial9availableEv
                0x000007ac       0x18 src/arduino/cores/arduino/HardwareSerial.o
                0x000007ac                _ZN14HardwareSerial9availableEv
 .text._ZN14HardwareSerial4peekEv
                0x000007c4       0x1c src/arduino/cores/arduino/HardwareSerial.o
                0x000007c4                _ZN14HardwareSerial4peekEv
 .text._ZN14HardwareSerial4readEv
                0x000007e0       0x28 src/arduino/cores/arduino/HardwareSerial.o
                0x000007e0                _ZN14HardwareSerial4readEv
 .text._Z14serialEventRunv
                0x00000808       0x1c src/arduino/cores/arduino/HardwareSerial.o
                0x00000808                _Z14serialEventRunv
 .text._ZN14HardwareSerial17_tx_udr_empty_irqEv
                0x00000824       0x54 src/arduino/cores/arduino/HardwareSerial.o
                0x00000824                _ZN14HardwareSerial17_tx_udr_empty_irqEv
 .text._ZN14HardwareSerial5flushEv
                0x00000878       0x44 src/arduino/cores/arduino/HardwareSerial.o
                0x00000878                _ZN14HardwareSerial5flushEv
 .text._ZN14HardwareSerial5writeEh
                0x000008bc       0x9e src/arduino/cores/arduino/HardwareSerial.o
                0x000008bc                _ZN14HardwareSerial5writeEh
 .text._ZN14HardwareSerial5beginEmh
                0x0000095a       0xd2 src/arduino/cores/arduino/HardwareSerial.o
                0x0000095a                _ZN14HardwareSerial5beginEmh
 .text.__vector_18
                0x00000a2c       0x70 src/arduino/cores/arduino/HardwareSerial0.o
                0x00000a2c                __vector_18
 .text.__vector_19
                0x00000a9c       0x4c src/arduino/cores/arduino/HardwareSerial0.o
                0x00000a9c                __vector_19
 .text._Z17Serial0_availablev
                0x00000ae8       0x14 src/arduino/cores/arduino/HardwareSerial0.o
                0x00000ae8                _Z17Serial0_availablev
 .text._GLOBAL__sub_I___vector_18
                0x00000afc       0x5a src/arduino/cores/arduino/HardwareSerial0.o
 .text.__empty  0x00000b56        0x2 src/arduino/cores/arduino/hooks.o
                0x00000b56                yield
 .text._ZNK9IPAddress7printToER5Print
                0x00000b58       0x84 src/arduino/cores/arduino/IPAddress.o
                0x00000b58                _ZNK9IPAddress7printToER5Print
 .text._GLOBAL__sub_I__ZN9IPAddressC2Ev
                0x00000bdc       0x16 src/arduino/cores/arduino/IPAddress.o
 .text.initVariant
                0x00000bf2        0x2 src/arduino/cores/arduino/main.o
                0x00000bf2                initVariant
 .text.main     0x00000bf4       0x1e src/arduino/cores/arduino/main.o
                0x00000bf4                main
 .text._ZN5Print5writeEPKhj
                0x00000c12       0x5a src/arduino/cores/arduino/Print.o
                0x00000c12                _ZN5Print5writeEPKhj
 .text._ZN5Print5printEPKc
                0x00000c6c       0x2c src/arduino/cores/arduino/Print.o
                0x00000c6c                _ZN5Print5printEPKc
 .text._ZN5Print5printEc
                0x00000c98       0x10 src/arduino/cores/arduino/Print.o
                0x00000c98                _ZN5Print5printEc
 .text._ZN5Print7printlnEv
                0x00000ca8       0x28 src/arduino/cores/arduino/Print.o
                0x00000ca8                _ZN5Print7printlnEv
 .text._ZN5Print7printlnEPKc
                0x00000cd0       0x24 src/arduino/cores/arduino/Print.o
                0x00000cd0                _ZN5Print7printlnEPKc
 .text._ZN5Print11printNumberEmh
                0x00000cf4       0xe6 src/arduino/cores/arduino/Print.o
                0x00000cf4                _ZN5Print11printNumberEmh
 .text._ZN5Print5printEli
                0x00000dda       0x78 src/arduino/cores/arduino/Print.o
                0x00000dda                _ZN5Print5printEli
 .text._ZN5Print5printEii
                0x00000e52       0x10 src/arduino/cores/arduino/Print.o
                0x00000e52                _ZN5Print5printEii
 .text._ZN5Print5printEmi
                0x00000e62       0x1e src/arduino/cores/arduino/Print.o
                0x00000e62                _ZN5Print5printEmi
 .text._ZN5Print5printEhi
                0x00000e80       0x10 src/arduino/cores/arduino/Print.o
                0x00000e80                _ZN5Print5printEhi
 .text._Z12disableTimerh
                0x00000e90       0x40 src/arduino/cores/arduino/Tone.o
                0x00000e90                _Z12disableTimerh
 .text._Z6noToneh
                0x00000ed0       0x2e src/arduino/cores/arduino/Tone.o
                0x00000ed0                _Z6noToneh
 .text.__vector_7
                0x00000efe       0xb8 src/arduino/cores/arduino/Tone.o
                0x00000efe                __vector_7
 .text.__vector_1
                0x00000fb6       0x5a src/arduino/cores/arduino/WInterrupts.o
                0x00000fb6                __vector_1
 .text.__vector_2
                0x00001010       0x5a src/arduino/cores/arduino/WInterrupts.o
                0x00001010                __vector_2
 .text.__vector_16
                0x0000106a       0x94 src/arduino/cores/arduino/wiring.o
                0x0000106a                __vector_16
 .text.micros   0x000010fe       0x4c src/arduino/cores/arduino/wiring.o
                0x000010fe                micros
 .text.delay    0x0000114a       0x58 src/arduino/cores/arduino/wiring.o
                0x0000114a                delay
 .text.init     0x000011a2       0x76 src/arduino/cores/arduino/wiring.o
                0x000011a2                init
 .text.turnOffPWM
                0x00001218       0x5e src/arduino/cores/arduino/wiring_digital.o
 .text.pinMode  0x00001276       0x7e src/arduino/cores/arduino/wiring_digital.o
                0x00001276                pinMode
 .text.digitalWrite
                0x000012f4       0x62 src/arduino/cores/arduino/wiring_digital.o
                0x000012f4                digitalWrite
 .text.twi_init
                0x00001356       0x3c src/arduino/libraries/Wire/utility/twi.o
                0x00001356                twi_init
 .text.twi_writeTo
                0x00001392       0xba src/arduino/libraries/Wire/utility/twi.o
                0x00001392                twi_writeTo
 .text.twi_transmit
                0x0000144c       0x42 src/arduino/libraries/Wire/utility/twi.o
                0x0000144c                twi_transmit
 .text.twi_stop
                0x0000148e       0x16 src/arduino/libraries/Wire/utility/twi.o
                0x0000148e                twi_stop
 .text.twi_releaseBus
                0x000014a4        0xc src/arduino/libraries/Wire/utility/twi.o
                0x000014a4                twi_releaseBus
 .text.__vector_24
                0x000014b0      0x246 src/arduino/libraries/Wire/utility/twi.o
                0x000014b0                __vector_24
 .text._ZN7TwoWire9availableEv
                0x000016f6       0x10 src/arduino/libraries/Wire/Wire.o
                0x000016f6                _ZN7TwoWire9availableEv
 .text._ZN7TwoWire4readEv
                0x00001706       0x28 src/arduino/libraries/Wire/Wire.o
                0x00001706                _ZN7TwoWire4readEv
 .text._ZN7TwoWire4peekEv
                0x0000172e       0x1e src/arduino/libraries/Wire/Wire.o
                0x0000172e                _ZN7TwoWire4peekEv
 .text._ZN7TwoWire5flushEv
                0x0000174c        0x2 src/arduino/libraries/Wire/Wire.o
                0x0000174c                _ZN7TwoWire5flushEv
 .text._ZN7TwoWire5writeEPKhj
                0x0000174e       0x60 src/arduino/libraries/Wire/Wire.o
                0x0000174e                _ZN7TwoWire5writeEPKhj
 .text._ZN7TwoWire5writeEh
                0x000017ae       0x62 src/arduino/libraries/Wire/Wire.o
                0x000017ae                _ZN7TwoWire5writeEh
 .text._ZN7TwoWireC2Ev
                0x00001810       0x20 src/arduino/libraries/Wire/Wire.o
                0x00001810                _ZN7TwoWireC1Ev
                0x00001810                _ZN7TwoWireC2Ev
 .text._ZN7TwoWire5beginEv
                0x00001830       0x16 src/arduino/libraries/Wire/Wire.o
                0x00001830                _ZN7TwoWire5beginEv
 .text._ZN7TwoWire17beginTransmissionEh
                0x00001846       0x14 src/arduino/libraries/Wire/Wire.o
                0x00001846                _ZN7TwoWire17beginTransmissionEh
 .text._ZN7TwoWire17beginTransmissionEi
                0x0000185a        0x6 src/arduino/libraries/Wire/Wire.o
                0x0000185a                _ZN7TwoWire17beginTransmissionEi
 .text._ZN7TwoWire15endTransmissionEh
                0x00001860       0x26 src/arduino/libraries/Wire/Wire.o
                0x00001860                _ZN7TwoWire15endTransmissionEh
 .text._ZN7TwoWire15endTransmissionEv
                0x00001886        0x8 src/arduino/libraries/Wire/Wire.o
                0x00001886                _ZN7TwoWire15endTransmissionEv
 .text._GLOBAL__sub_I__ZN7TwoWire8rxBufferE
                0x0000188e        0xa src/arduino/libraries/Wire/Wire.o
 .text._ZN12Adafruit_GFX8drawLineEiiiij
                0x00001898      0x18a src/arduino/libraries/Adafruit_SSD1306_I2C/Adafruit_GFX.o
                0x00001898                _ZN12Adafruit_GFX8drawLineEiiiij
 .text._ZN12Adafruit_GFX8drawRectEiiiij
                0x00001a22       0x9e src/arduino/libraries/Adafruit_SSD1306_I2C/Adafruit_GFX.o
                0x00001a22                _ZN12Adafruit_GFX8drawRectEiiiij
 .text._ZN12Adafruit_GFX13drawFastVLineEiiij
                0x00001ac0       0x2e src/arduino/libraries/Adafruit_SSD1306_I2C/Adafruit_GFX.o
                0x00001ac0                _ZN12Adafruit_GFX13drawFastVLineEiiij
 .text._ZN12Adafruit_GFX13drawFastHLineEiiij
                0x00001aee       0x2c src/arduino/libraries/Adafruit_SSD1306_I2C/Adafruit_GFX.o
                0x00001aee                _ZN12Adafruit_GFX13drawFastHLineEiiij
 .text._ZN12Adafruit_GFX8fillRectEiiiij
                0x00001b1a       0x70 src/arduino/libraries/Adafruit_SSD1306_I2C/Adafruit_GFX.o
                0x00001b1a                _ZN12Adafruit_GFX8fillRectEiiiij
 .text._ZN12Adafruit_GFX10fillScreenEj
                0x00001b8a       0x3c src/arduino/libraries/Adafruit_SSD1306_I2C/Adafruit_GFX.o
                0x00001b8a                _ZN12Adafruit_GFX10fillScreenEj
 .text._ZN12Adafruit_GFX13invertDisplayEb
                0x00001bc6        0x2 src/arduino/libraries/Adafruit_SSD1306_I2C/Adafruit_GFX.o
                0x00001bc6                _ZN12Adafruit_GFX13invertDisplayEb
 .text._ZN12Adafruit_GFXC2Eii
                0x00001bc8       0x3e src/arduino/libraries/Adafruit_SSD1306_I2C/Adafruit_GFX.o
                0x00001bc8                _ZN12Adafruit_GFXC2Eii
                0x00001bc8                _ZN12Adafruit_GFXC1Eii
 .text._ZN12Adafruit_GFX8drawCharEiihjjh
                0x00001c06      0x224 src/arduino/libraries/Adafruit_SSD1306_I2C/Adafruit_GFX.o
                0x00001c06                _ZN12Adafruit_GFX8drawCharEiihjjh
 .text._ZN12Adafruit_GFX5writeEh
                0x00001e2a       0xbc src/arduino/libraries/Adafruit_SSD1306_I2C/Adafruit_GFX.o
                0x00001e2a                _ZN12Adafruit_GFX5writeEh
 .text._ZN12Adafruit_GFX9setCursorEii
                0x00001ee6        0xc src/arduino/libraries/Adafruit_SSD1306_I2C/Adafruit_GFX.o
                0x00001ee6                _ZN12Adafruit_GFX9setCursorEii
 .text._ZN12Adafruit_GFX11setTextSizeEh
                0x00001ef2        0xc src/arduino/libraries/Adafruit_SSD1306_I2C/Adafruit_GFX.o
                0x00001ef2                _ZN12Adafruit_GFX11setTextSizeEh
 .text._ZN12Adafruit_GFX12setTextColorEj
                0x00001efe        0xc src/arduino/libraries/Adafruit_SSD1306_I2C/Adafruit_GFX.o
                0x00001efe                _ZN12Adafruit_GFX12setTextColorEj
 .text._ZNK12Adafruit_GFX11getRotationEv
                0x00001f0a        0x6 src/arduino/libraries/Adafruit_SSD1306_I2C/Adafruit_GFX.o
                0x00001f0a                _ZNK12Adafruit_GFX11getRotationEv
 .text._ZNK12Adafruit_GFX5widthEv
                0x00001f10        0x8 src/arduino/libraries/Adafruit_SSD1306_I2C/Adafruit_GFX.o
                0x00001f10                _ZNK12Adafruit_GFX5widthEv
 .text._ZNK12Adafruit_GFX6heightEv
                0x00001f18        0x8 src/arduino/libraries/Adafruit_SSD1306_I2C/Adafruit_GFX.o
                0x00001f18                _ZNK12Adafruit_GFX6heightEv
 .text._ZN16Adafruit_SSD130613drawFastHLineEiiij
                0x00001f20      0x2c0 src/arduino/libraries/Adafruit_SSD1306_I2C/Adafruit_SSD1306.o
                0x00001f20                _ZN16Adafruit_SSD130613drawFastHLineEiiij
 .text._ZN16Adafruit_SSD130613drawFastVLineEiiij
                0x000021e0      0x2c0 src/arduino/libraries/Adafruit_SSD1306_I2C/Adafruit_SSD1306.o
                0x000021e0                _ZN16Adafruit_SSD130613drawFastVLineEiiij
 .text._ZN16Adafruit_SSD13069drawPixelEiij
                0x000024a0      0x17e src/arduino/libraries/Adafruit_SSD1306_I2C/Adafruit_SSD1306.o
                0x000024a0                _ZN16Adafruit_SSD13069drawPixelEiij
 .text._ZN16Adafruit_SSD1306C2Eh
                0x0000261e       0x20 src/arduino/libraries/Adafruit_SSD1306_I2C/Adafruit_SSD1306.o
                0x0000261e                _ZN16Adafruit_SSD1306C1Eh
                0x0000261e                _ZN16Adafruit_SSD1306C2Eh
 .text._ZN16Adafruit_SSD130612clearDisplayEv
                0x0000263e       0x16 src/arduino/libraries/Adafruit_SSD1306_I2C/Adafruit_SSD1306.o
                0x0000263e                _ZN16Adafruit_SSD130612clearDisplayEv
 .text._ZN16Adafruit_SSD130615ssd1306_commandEh
                0x00002654       0x30 src/arduino/libraries/Adafruit_SSD1306_I2C/Adafruit_SSD1306.o
                0x00002654                _ZN16Adafruit_SSD130615ssd1306_commandEh
 .text._ZN16Adafruit_SSD13065beginEv
                0x00002684       0xdc src/arduino/libraries/Adafruit_SSD1306_I2C/Adafruit_SSD1306.o
                0x00002684                _ZN16Adafruit_SSD13065beginEv
 .text._ZN16Adafruit_SSD130614display_bufferEv
                0x00002760       0xb4 src/arduino/libraries/Adafruit_SSD1306_I2C/Adafruit_SSD1306.o
                0x00002760                _ZN16Adafruit_SSD130614display_bufferEv
 .text._Z8drawTexthhPch
                0x00002814       0x4e src/Project/ProjectMain.o
                0x00002814                _Z8drawTexthhPch
 .text._Z8startADCv
                0x00002862        0xc src/Project/ProjectMain.o
                0x00002862                _Z8startADCv
 .text._Z19test_AnalogInPWMOutv
                0x0000286e       0x20 src/Project/ProjectMain.o
                0x0000286e                _Z19test_AnalogInPWMOutv
 .text.__vector_21
                0x0000288e       0x1e src/Project/ProjectMain.o
                0x0000288e                __vector_21
 .text.setup    0x000028ac       0x74 src/Project/ProjectMain.o
                0x000028ac                setup
 .text.loop     0x00002920       0x4e src/Project/ProjectMain.o
                0x00002920                loop
 .text._GLOBAL__sub_I_display
                0x0000296e        0xc src/Project/ProjectMain.o
 .text.libgcc.div
                0x0000297a       0x44 c:/program files (x86)/atmel/studio/7.0/toolchain/avr8/avr8-gnu-toolchain/bin/../lib/gcc/avr/4.9.2/avr5\libgcc.a(_udivmodsi4.o)
                0x0000297a                __udivmodsi4
 .text.libgcc   0x000029be        0xc c:/program files (x86)/atmel/studio/7.0/toolchain/avr8/avr8-gnu-toolchain/bin/../lib/gcc/avr/4.9.2/avr5\libgcc.a(_tablejump2.o)
                0x000029be                __tablejump2__
 .text.avr-libc
                0x000029ca        0xa c:/program files (x86)/atmel/studio/7.0/toolchain/avr8/avr8-gnu-toolchain/bin/../lib/gcc/avr/4.9.2/../../../../avr/lib/avr5\libc.a(abort.o)
                0x000029ca                abort
                0x000029d4                . = ALIGN (0x2)
 *(.fini9)
 .fini9         0x000029d4        0x0 c:/program files (x86)/atmel/studio/7.0/toolchain/avr8/avr8-gnu-toolchain/bin/../lib/gcc/avr/4.9.2/avr5\libgcc.a(_exit.o)
                0x000029d4                _exit
                0x000029d4                exit
 *(.fini9)
 *(.fini8)
 *(.fini8)
 *(.fini7)
 *(.fini7)
 *(.fini6)
 *(.fini6)
 *(.fini5)
 *(.fini5)
 *(.fini4)
 *(.fini4)
 *(.fini3)
 *(.fini3)
 *(.fini2)
 *(.fini2)
 *(.fini1)
 *(.fini1)
 *(.fini0)
 .fini0         0x000029d4        0x4 c:/program files (x86)/atmel/studio/7.0/toolchain/avr8/avr8-gnu-toolchain/bin/../lib/gcc/avr/4.9.2/avr5\libgcc.a(_exit.o)
 *(.fini0)
                0x000029d8                _etext = .

.data           0x00800100      0x4a0 load address 0x000029d8
                0x00800100                PROVIDE (__data_start, .)
 *(.data)
 *(.data*)
 .data._ZL9tone_pins
                0x00800100        0x1 src/arduino/cores/arduino/Tone.o
 .data._ZZN16Adafruit_SSD130621drawFastVLineInternalEiiijE8postmask
                0x00800101        0x8 src/arduino/libraries/Adafruit_SSD1306_I2C/Adafruit_SSD1306.o
                0x00800101                _ZZN16Adafruit_SSD130621drawFastVLineInternalEiiijE8postmask
 .data._ZZN16Adafruit_SSD130621drawFastVLineInternalEiiijE7premask
                0x00800109        0x8 src/arduino/libraries/Adafruit_SSD1306_I2C/Adafruit_SSD1306.o
                0x00800109                _ZZN16Adafruit_SSD130621drawFastVLineInternalEiiijE7premask
 .data._ZL6buffer
                0x00800111      0x400 src/arduino/libraries/Adafruit_SSD1306_I2C/Adafruit_SSD1306.o
 *(.rodata)
 *(.rodata*)
 .rodata._ZTV14HardwareSerial
                0x00800511       0x10 src/arduino/cores/arduino/HardwareSerial.o
                0x00800511                _ZTV14HardwareSerial
 .rodata._ZTV9IPAddress
                0x00800521        0x6 src/arduino/cores/arduino/IPAddress.o
                0x00800521                _ZTV9IPAddress
 .rodata._ZTV7TwoWire
                0x00800527       0x10 src/arduino/libraries/Wire/Wire.o
                0x00800527                _ZTV7TwoWire
 .rodata._ZTV12Adafruit_GFX
                0x00800537       0x18 src/arduino/libraries/Adafruit_SSD1306_I2C/Adafruit_GFX.o
                0x00800537                _ZTV12Adafruit_GFX
 .rodata._ZTV16Adafruit_SSD1306
                0x0080054f       0x18 src/arduino/libraries/Adafruit_SSD1306_I2C/Adafruit_SSD1306.o
                0x0080054f                _ZTV16Adafruit_SSD1306
 .rodata.str1.1
                0x00800567       0x39 src/Project/ProjectMain.o
 *(.gnu.linkonce.d*)
                0x008005a0                . = ALIGN (0x2)
                0x008005a0                _edata = .
                0x008005a0                PROVIDE (__data_end, .)

.bss            0x008005a0      0x18f
                0x008005a0                PROVIDE (__bss_start, .)
 *(.bss)
 *(.bss*)
 .bss.Serial    0x008005a0       0x9d src/arduino/cores/arduino/HardwareSerial0.o
                0x008005a0                Serial
 .bss._ZL11INADDR_NONE
                0x0080063d        0x6 src/arduino/cores/arduino/IPAddress.o
 .bss.timer2_pin_mask
                0x00800643        0x1 src/arduino/cores/arduino/Tone.o
                0x00800643                timer2_pin_mask
 .bss.timer2_pin_port
                0x00800644        0x2 src/arduino/cores/arduino/Tone.o
                0x00800644                timer2_pin_port
 .bss.timer2_toggle_count
                0x00800646        0x4 src/arduino/cores/arduino/Tone.o
                0x00800646                timer2_toggle_count
 .bss.intFunc   0x0080064a        0x4 src/arduino/cores/arduino/WInterrupts.o
 .bss.timer0_fract
                0x0080064e        0x1 src/arduino/cores/arduino/wiring.o
 .bss.timer0_millis
                0x0080064f        0x4 src/arduino/cores/arduino/wiring.o
                0x0080064f                timer0_millis
 .bss.timer0_overflow_count
                0x00800653        0x4 src/arduino/cores/arduino/wiring.o
                0x00800653                timer0_overflow_count
 .bss.twi_error
                0x00800657        0x1 src/arduino/libraries/Wire/utility/twi.o
 .bss.twi_rxBufferIndex
                0x00800658        0x1 src/arduino/libraries/Wire/utility/twi.o
 .bss.twi_rxBuffer
                0x00800659       0x20 src/arduino/libraries/Wire/utility/twi.o
 .bss.twi_txBufferLength
                0x00800679        0x1 src/arduino/libraries/Wire/utility/twi.o
 .bss.twi_txBufferIndex
                0x0080067a        0x1 src/arduino/libraries/Wire/utility/twi.o
 .bss.twi_txBuffer
                0x0080067b       0x20 src/arduino/libraries/Wire/utility/twi.o
 .bss.twi_masterBufferLength
                0x0080069b        0x1 src/arduino/libraries/Wire/utility/twi.o
 .bss.twi_masterBufferIndex
                0x0080069c        0x1 src/arduino/libraries/Wire/utility/twi.o
 .bss.twi_masterBuffer
                0x0080069d       0x20 src/arduino/libraries/Wire/utility/twi.o
 .bss.twi_onSlaveReceive
                0x008006bd        0x2 src/arduino/libraries/Wire/utility/twi.o
 .bss.twi_onSlaveTransmit
                0x008006bf        0x2 src/arduino/libraries/Wire/utility/twi.o
 .bss.twi_inRepStart
                0x008006c1        0x1 src/arduino/libraries/Wire/utility/twi.o
 .bss.twi_sendStop
                0x008006c2        0x1 src/arduino/libraries/Wire/utility/twi.o
 .bss.twi_slarw
                0x008006c3        0x1 src/arduino/libraries/Wire/utility/twi.o
 .bss.twi_state
                0x008006c4        0x1 src/arduino/libraries/Wire/utility/twi.o
 .bss.Wire      0x008006c5        0xc src/arduino/libraries/Wire/Wire.o
                0x008006c5                Wire
 .bss._ZN7TwoWire12transmittingE
                0x008006d1        0x1 src/arduino/libraries/Wire/Wire.o
                0x008006d1                _ZN7TwoWire12transmittingE
 .bss._ZN7TwoWire14txBufferLengthE
                0x008006d2        0x1 src/arduino/libraries/Wire/Wire.o
                0x008006d2                _ZN7TwoWire14txBufferLengthE
 .bss._ZN7TwoWire13txBufferIndexE
                0x008006d3        0x1 src/arduino/libraries/Wire/Wire.o
                0x008006d3                _ZN7TwoWire13txBufferIndexE
 .bss._ZN7TwoWire8txBufferE
                0x008006d4       0x20 src/arduino/libraries/Wire/Wire.o
                0x008006d4                _ZN7TwoWire8txBufferE
 .bss._ZN7TwoWire9txAddressE
                0x008006f4        0x1 src/arduino/libraries/Wire/Wire.o
                0x008006f4                _ZN7TwoWire9txAddressE
 .bss._ZN7TwoWire14rxBufferLengthE
                0x008006f5        0x1 src/arduino/libraries/Wire/Wire.o
                0x008006f5                _ZN7TwoWire14rxBufferLengthE
 .bss._ZN7TwoWire13rxBufferIndexE
                0x008006f6        0x1 src/arduino/libraries/Wire/Wire.o
                0x008006f6                _ZN7TwoWire13rxBufferIndexE
 .bss._ZN7TwoWire8rxBufferE
                0x008006f7       0x20 src/arduino/libraries/Wire/Wire.o
                0x008006f7                _ZN7TwoWire8rxBufferE
 .bss.display   0x00800717       0x18 src/Project/ProjectMain.o
                0x00800717                display
 *(COMMON)
                0x0080072f                PROVIDE (__bss_end, .)
                0x000029d8                __data_load_start = LOADADDR (.data)
                0x00002e78                __data_load_end = (__data_load_start + SIZEOF (.data))

.noinit         0x0080072f        0x0
                0x0080072f                PROVIDE (__noinit_start, .)
 *(.noinit*)
                0x0080072f                PROVIDE (__noinit_end, .)
                0x0080072f                _end = .
                0x0080072f                PROVIDE (__heap_start, .)

.eeprom         0x00810000        0x0
 *(.eeprom*)
                0x00810000                __eeprom_end = .

.fuse
 *(.fuse)
 *(.lfuse)
 *(.hfuse)
 *(.efuse)

.lock
 *(.lock*)

.signature
 *(.signature*)

.user_signatures
 *(.user_signatures*)

.stab
 *(.stab)

.stabstr
 *(.stabstr)

.stab.excl
 *(.stab.excl)

.stab.exclstr
 *(.stab.exclstr)

.stab.index
 *(.stab.index)

.stab.indexstr
 *(.stab.indexstr)

.comment        0x00000000       0x30
 *(.comment)
 .comment       0x00000000       0x30 src/arduino/cores/arduino/abi.o
                                 0x31 (size before relaxing)
 .comment       0x00000030       0x31 src/arduino/cores/arduino/HardwareSerial.o
 .comment       0x00000030       0x31 src/arduino/cores/arduino/HardwareSerial0.o
 .comment       0x00000030       0x31 src/arduino/cores/arduino/hooks.o
 .comment       0x00000030       0x31 src/arduino/cores/arduino/IPAddress.o
 .comment       0x00000030       0x31 src/arduino/cores/arduino/main.o
 .comment       0x00000030       0x31 src/arduino/cores/arduino/Print.o
 .comment       0x00000030       0x31 src/arduino/cores/arduino/Tone.o
 .comment       0x00000030       0x31 src/arduino/cores/arduino/WInterrupts.o
 .comment       0x00000030       0x31 src/arduino/cores/arduino/wiring.o
 .comment       0x00000030       0x31 src/arduino/cores/arduino/wiring_digital.o
 .comment       0x00000030       0x31 src/arduino/libraries/Wire/utility/twi.o
 .comment       0x00000030       0x31 src/arduino/libraries/Wire/Wire.o
 .comment       0x00000030       0x31 src/arduino/libraries/Adafruit_SSD1306_I2C/Adafruit_GFX.o
 .comment       0x00000030       0x31 src/arduino/libraries/Adafruit_SSD1306_I2C/Adafruit_SSD1306.o
 .comment       0x00000030       0x31 src/Project/ProjectMain.o

.note.gnu.avr.deviceinfo
                0x00000000       0x40
 .note.gnu.avr.deviceinfo
                0x00000000       0x40 C:/Program Files (x86)/Atmel/Studio/7.0/Packs/atmel/ATmega_DFP/1.0.90/gcc/dev/atmega328p/avr5/crtatmega328p.o

.note.gnu.build-id
 *(.note.gnu.build-id)

.debug
 *(.debug)

.line
 *(.line)

.debug_srcinfo
 *(.debug_srcinfo)

.debug_sfnames
 *(.debug_sfnames)

.debug_aranges  0x00000000      0x720
 *(.debug_aranges)
 .debug_aranges
                0x00000000       0x28 src/arduino/cores/arduino/abi.o
 .debug_aranges
                0x00000028       0x68 src/arduino/cores/arduino/HardwareSerial.o
 .debug_aranges
                0x00000090       0x38 src/arduino/cores/arduino/HardwareSerial0.o
 .debug_aranges
                0x000000c8       0x20 src/arduino/cores/arduino/hooks.o
 .debug_aranges
                0x000000e8       0x60 src/arduino/cores/arduino/IPAddress.o
 .debug_aranges
                0x00000148       0x30 src/arduino/cores/arduino/main.o
 .debug_aranges
                0x00000178       0xe8 src/arduino/cores/arduino/Print.o
 .debug_aranges
                0x00000260       0x38 src/arduino/cores/arduino/Tone.o
 .debug_aranges
                0x00000298       0x38 src/arduino/cores/arduino/WInterrupts.o
 .debug_aranges
                0x000002d0       0x48 src/arduino/cores/arduino/wiring.o
 .debug_aranges
                0x00000318       0x38 src/arduino/cores/arduino/wiring_digital.o
 .debug_aranges
                0x00000350       0x70 src/arduino/libraries/Wire/utility/twi.o
 .debug_aranges
                0x000003c0       0xd8 src/arduino/libraries/Wire/Wire.o
 .debug_aranges
                0x00000498      0x120 src/arduino/libraries/Adafruit_SSD1306_I2C/Adafruit_GFX.o
 .debug_aranges
                0x000005b8       0x98 src/arduino/libraries/Adafruit_SSD1306_I2C/Adafruit_SSD1306.o
 .debug_aranges
                0x00000650       0xd0 src/Project/ProjectMain.o

.debug_pubnames
 *(.debug_pubnames)

.debug_info     0x00000000     0xf22d
 *(.debug_info .gnu.linkonce.wi.*)
 .debug_info    0x00000000       0x8e src/arduino/cores/arduino/abi.o
 .debug_info    0x0000008e     0x19bf src/arduino/cores/arduino/HardwareSerial.o
 .debug_info    0x00001a4d     0x1696 src/arduino/cores/arduino/HardwareSerial0.o
 .debug_info    0x000030e3       0x3e src/arduino/cores/arduino/hooks.o
 .debug_info    0x00003121      0x98f src/arduino/cores/arduino/IPAddress.o
 .debug_info    0x00003ab0      0x1f0 src/arduino/cores/arduino/main.o
 .debug_info    0x00003ca0     0x25a5 src/arduino/cores/arduino/Print.o
 .debug_info    0x00006245      0x73f src/arduino/cores/arduino/Tone.o
 .debug_info    0x00006984      0x200 src/arduino/cores/arduino/WInterrupts.o
 .debug_info    0x00006b84      0x2bb src/arduino/cores/arduino/wiring.o
 .debug_info    0x00006e3f      0x5d6 src/arduino/cores/arduino/wiring_digital.o
 .debug_info    0x00007415      0x6b1 src/arduino/libraries/Wire/utility/twi.o
 .debug_info    0x00007ac6     0x219b src/arduino/libraries/Wire/Wire.o
 .debug_info    0x00009c61     0x29d0 src/arduino/libraries/Adafruit_SSD1306_I2C/Adafruit_GFX.o
 .debug_info    0x0000c631     0x187c src/arduino/libraries/Adafruit_SSD1306_I2C/Adafruit_SSD1306.o
 .debug_info    0x0000dead     0x1380 src/Project/ProjectMain.o

.debug_abbrev   0x00000000     0x2746
 *(.debug_abbrev)
 .debug_abbrev  0x00000000       0x5e src/arduino/cores/arduino/abi.o
 .debug_abbrev  0x0000005e      0x350 src/arduino/cores/arduino/HardwareSerial.o
 .debug_abbrev  0x000003ae      0x33d src/arduino/cores/arduino/HardwareSerial0.o
 .debug_abbrev  0x000006eb       0x2a src/arduino/cores/arduino/hooks.o
 .debug_abbrev  0x00000715      0x33d src/arduino/cores/arduino/IPAddress.o
 .debug_abbrev  0x00000a52       0xd7 src/arduino/cores/arduino/main.o
 .debug_abbrev  0x00000b29      0x3a7 src/arduino/cores/arduino/Print.o
 .debug_abbrev  0x00000ed0      0x261 src/arduino/cores/arduino/Tone.o
 .debug_abbrev  0x00001131       0xe6 src/arduino/cores/arduino/WInterrupts.o
 .debug_abbrev  0x00001217      0x145 src/arduino/cores/arduino/wiring.o
 .debug_abbrev  0x0000135c      0x149 src/arduino/cores/arduino/wiring_digital.o
 .debug_abbrev  0x000014a5      0x251 src/arduino/libraries/Wire/utility/twi.o
 .debug_abbrev  0x000016f6      0x4c2 src/arduino/libraries/Wire/Wire.o
 .debug_abbrev  0x00001bb8      0x38c src/arduino/libraries/Adafruit_SSD1306_I2C/Adafruit_GFX.o
 .debug_abbrev  0x00001f44      0x3f4 src/arduino/libraries/Adafruit_SSD1306_I2C/Adafruit_SSD1306.o
 .debug_abbrev  0x00002338      0x40e src/Project/ProjectMain.o

.debug_line     0x00000000     0x2875
 *(.debug_line .debug_line.* .debug_line_end)
 .debug_line    0x00000000       0xc4 src/arduino/cores/arduino/abi.o
 .debug_line    0x000000c4      0x2ef src/arduino/cores/arduino/HardwareSerial.o
 .debug_line    0x000003b3      0x216 src/arduino/cores/arduino/HardwareSerial0.o
 .debug_line    0x000005c9       0x51 src/arduino/cores/arduino/hooks.o
 .debug_line    0x0000061a      0x236 src/arduino/cores/arduino/IPAddress.o
 .debug_line    0x00000850      0x133 src/arduino/cores/arduino/main.o
 .debug_line    0x00000983      0x408 src/arduino/cores/arduino/Print.o
 .debug_line    0x00000d8b      0x1f3 src/arduino/cores/arduino/Tone.o
 .debug_line    0x00000f7e      0x14c src/arduino/cores/arduino/WInterrupts.o
 .debug_line    0x000010ca      0x199 src/arduino/cores/arduino/wiring.o
 .debug_line    0x00001263      0x163 src/arduino/cores/arduino/wiring_digital.o
 .debug_line    0x000013c6      0x29a src/arduino/libraries/Wire/utility/twi.o
 .debug_line    0x00001660      0x39d src/arduino/libraries/Wire/Wire.o
 .debug_line    0x000019fd      0x5a5 src/arduino/libraries/Adafruit_SSD1306_I2C/Adafruit_GFX.o
 .debug_line    0x00001fa2      0x460 src/arduino/libraries/Adafruit_SSD1306_I2C/Adafruit_SSD1306.o
 .debug_line    0x00002402      0x473 src/Project/ProjectMain.o

.debug_frame    0x00000000     0x1924
 *(.debug_frame)
 .debug_frame   0x00000000       0x34 src/arduino/cores/arduino/abi.o
 .debug_frame   0x00000034      0x104 src/arduino/cores/arduino/HardwareSerial.o
 .debug_frame   0x00000138       0xcc src/arduino/cores/arduino/HardwareSerial0.o
 .debug_frame   0x00000204       0x24 src/arduino/cores/arduino/hooks.o
 .debug_frame   0x00000228       0xe8 src/arduino/cores/arduino/IPAddress.o
 .debug_frame   0x00000310       0x44 src/arduino/cores/arduino/main.o
 .debug_frame   0x00000354      0x3bc src/arduino/cores/arduino/Print.o
 .debug_frame   0x00000710      0x100 src/arduino/cores/arduino/Tone.o
 .debug_frame   0x00000810       0xe4 src/arduino/cores/arduino/WInterrupts.o
 .debug_frame   0x000008f4       0xbc src/arduino/cores/arduino/wiring.o
 .debug_frame   0x000009b0       0x7c src/arduino/cores/arduino/wiring_digital.o
 .debug_frame   0x00000a2c      0x114 src/arduino/libraries/Wire/utility/twi.o
 .debug_frame   0x00000b40      0x1ec src/arduino/libraries/Wire/Wire.o
 .debug_frame   0x00000d2c      0x7dc src/arduino/libraries/Adafruit_SSD1306_I2C/Adafruit_GFX.o
 .debug_frame   0x00001508      0x200 src/arduino/libraries/Adafruit_SSD1306_I2C/Adafruit_SSD1306.o
 .debug_frame   0x00001708      0x21c src/Project/ProjectMain.o

.debug_str      0x00000000     0x30fa
 *(.debug_str)
 .debug_str     0x00000000      0x172 src/arduino/cores/arduino/abi.o
                                0x188 (size before relaxing)
 .debug_str     0x00000172      0xfba src/arduino/cores/arduino/HardwareSerial.o
                               0x1171 (size before relaxing)
 .debug_str     0x0000112c       0x9c src/arduino/cores/arduino/HardwareSerial0.o
                                0xf6b (size before relaxing)
 .debug_str     0x000011c8       0xd6 src/arduino/cores/arduino/hooks.o
                                0x118 (size before relaxing)
 .debug_str     0x0000129e      0x272 src/arduino/cores/arduino/IPAddress.o
                                0x503 (size before relaxing)
 .debug_str     0x00001510       0x4e src/arduino/cores/arduino/main.o
                                0x237 (size before relaxing)
 .debug_str     0x0000155e      0x38c src/arduino/cores/arduino/Print.o
                                0xe68 (size before relaxing)
 .debug_str     0x000018ea      0x1c1 src/arduino/cores/arduino/Tone.o
                                0x3c3 (size before relaxing)
 .debug_str     0x00001aab       0x96 src/arduino/cores/arduino/WInterrupts.o
                                0x208 (size before relaxing)
 .debug_str     0x00001b41       0x96 src/arduino/cores/arduino/wiring.o
                                0x21a (size before relaxing)
 .debug_str     0x00001bd7       0x81 src/arduino/cores/arduino/wiring_digital.o
                                0x288 (size before relaxing)
 .debug_str     0x00001c58      0x1c4 src/arduino/libraries/Wire/utility/twi.o
                                0x36a (size before relaxing)
 .debug_str     0x00001e1c      0x4a1 src/arduino/libraries/Wire/Wire.o
                               0x13c8 (size before relaxing)
 .debug_str     0x000022bd      0x6e8 src/arduino/libraries/Adafruit_SSD1306_I2C/Adafruit_GFX.o
                                0x93c (size before relaxing)
 .debug_str     0x000029a5      0x410 src/arduino/libraries/Adafruit_SSD1306_I2C/Adafruit_SSD1306.o
                                0x7a1 (size before relaxing)
 .debug_str     0x00002db5      0x345 src/Project/ProjectMain.o
                                0x865 (size before relaxing)

.debug_loc      0x00000000     0xa36f
 *(.debug_loc)
 .debug_loc     0x00000000      0x447 src/arduino/cores/arduino/HardwareSerial.o
 .debug_loc     0x00000447      0x17b src/arduino/cores/arduino/HardwareSerial0.o
 .debug_loc     0x000005c2      0x2c0 src/arduino/cores/arduino/IPAddress.o
 .debug_loc     0x00000882       0x26 src/arduino/cores/arduino/main.o
 .debug_loc     0x000008a8     0x1e70 src/arduino/cores/arduino/Print.o
 .debug_loc     0x00002718      0xb77 src/arduino/cores/arduino/Tone.o
 .debug_loc     0x0000328f      0x214 src/arduino/cores/arduino/WInterrupts.o
 .debug_loc     0x000034a3      0x22a src/arduino/cores/arduino/wiring.o
 .debug_loc     0x000036cd      0x5c4 src/arduino/cores/arduino/wiring_digital.o
 .debug_loc     0x00003c91      0x596 src/arduino/libraries/Wire/utility/twi.o
 .debug_loc     0x00004227      0x90a src/arduino/libraries/Wire/Wire.o
 .debug_loc     0x00004b31     0x3790 src/arduino/libraries/Adafruit_SSD1306_I2C/Adafruit_GFX.o
 .debug_loc     0x000082c1     0x1b23 src/arduino/libraries/Adafruit_SSD1306_I2C/Adafruit_SSD1306.o
 .debug_loc     0x00009de4      0x58b src/Project/ProjectMain.o

.debug_macinfo
 *(.debug_macinfo)

.debug_weaknames
 *(.debug_weaknames)

.debug_funcnames
 *(.debug_funcnames)

.debug_typenames
 *(.debug_typenames)

.debug_varnames
 *(.debug_varnames)

.debug_pubtypes
 *(.debug_pubtypes)

.debug_ranges   0x00000000      0x790
 *(.debug_ranges)
 .debug_ranges  0x00000000       0x18 src/arduino/cores/arduino/abi.o
 .debug_ranges  0x00000018       0x58 src/arduino/cores/arduino/HardwareSerial.o
 .debug_ranges  0x00000070       0x28 src/arduino/cores/arduino/HardwareSerial0.o
 .debug_ranges  0x00000098       0x10 src/arduino/cores/arduino/hooks.o
 .debug_ranges  0x000000a8       0x50 src/arduino/cores/arduino/IPAddress.o
 .debug_ranges  0x000000f8       0x20 src/arduino/cores/arduino/main.o
 .debug_ranges  0x00000118       0xf0 src/arduino/cores/arduino/Print.o
 .debug_ranges  0x00000208       0x58 src/arduino/cores/arduino/Tone.o
 .debug_ranges  0x00000260       0x28 src/arduino/cores/arduino/WInterrupts.o
 .debug_ranges  0x00000288       0x38 src/arduino/cores/arduino/wiring.o
 .debug_ranges  0x000002c0       0x28 src/arduino/cores/arduino/wiring_digital.o
 .debug_ranges  0x000002e8       0x60 src/arduino/libraries/Wire/utility/twi.o
 .debug_ranges  0x00000348       0xc8 src/arduino/libraries/Wire/Wire.o
 .debug_ranges  0x00000410      0x190 src/arduino/libraries/Adafruit_SSD1306_I2C/Adafruit_GFX.o
 .debug_ranges  0x000005a0      0x130 src/arduino/libraries/Adafruit_SSD1306_I2C/Adafruit_SSD1306.o
 .debug_ranges  0x000006d0       0xc0 src/Project/ProjectMain.o

.debug_macro
 *(.debug_macro)
OUTPUT(mini_vaporizer.elf elf32-avr)
LOAD linker stubs
